{
  "contractName": "DocumentValidation",
  "abi": [
    {
      "anonymous": false,
      "inputs": [
        {
          "indexed": true,
          "internalType": "bytes32",
          "name": "documentHash",
          "type": "bytes32"
        }
      ],
      "name": "DocumentSubmitted",
      "type": "event"
    },
    {
      "inputs": [
        {
          "internalType": "bytes32",
          "name": "documentHash",
          "type": "bytes32"
        }
      ],
      "name": "submitDocument",
      "outputs": [],
      "stateMutability": "nonpayable",
      "type": "function"
    }
  ],
  "bytecode": "0x608060405234801561001057600080fd5b50610222806100206000396000f3fe608060405234801561001057600080fd5b506004361061002b5760003560e01c8063a2c196ff14610030575b600080fd5b61004a6004803603810190610045919061011c565b61004c565b005b60008082815260200190815260200160002060009054906101000a900460ff16156100ac576040517f08c379a00000000000000000000000000000000000000000000000000000000081526004016100a39061016c565b60405180910390fd5b600160008083815260200190815260200160002060006101000a81548160ff021916908315150217905550807f3f157384e9d478993bbc11fc4ab490f4d7975a438e9c74539f0fb5ad10b18ed860405160405180910390a250565b600081359050610116816101d5565b92915050565b600060208284031215610132576101316101a7565b5b600061014084828501610107565b91505092915050565b600061015660178361018c565b9150610161826101ac565b602082019050919050565b6000602082019050818103600083015261018581610149565b9050919050565b600082825260208201905092915050565b6000819050919050565b600080fd5b7f446f63756d656e7420616c726561647920657869737473000000000000000000600082015250565b6101de8161019d565b81146101e957600080fd5b5056fea264697066735822122073447e0c7b3bbf3806144cfa3df098fb431e8b45e6dd4765077697e5d7ece18464736f6c63430008070033",
  "immutableReferences": {},
  "source": "// SPDX-License-Identifier: MIT\r\npragma solidity ^0.8.0;\r\n\r\ncontract DocumentValidation {\r\n    // Mapping to store submitted document hashes\r\n    mapping(bytes32 => bool) private documents;\r\n\r\n    // Event to log document submission\r\n    event DocumentSubmitted(bytes32 indexed documentHash);\r\n\r\n    // Function to submit a document\r\n    function submitDocument(bytes32 documentHash) public {\r\n        require(!documents[documentHash], \"Document already exists\");\r\n\r\n        // Store the document hash\r\n        documents[documentHash] = true;\r\n\r\n        // Emit the event\r\n        emit DocumentSubmitted(documentHash);\r\n    }\r\n}\r\n",
  "sourcePath": "C:\\Users\\AnuRaG\\Desktop\\digital\\digital\\truffle\\contracts\\document.sol",
  "compiler": {
    "name": "solc",
    "version": "0.8.7+commit.e28d00a7.Emscripten.clang"
  },
  "schemaVersion": "3.4.16",
  "updatedAt": "2025-01-12T03:55:20.800Z",
  "devdoc": {
    "kind": "dev",
    "methods": {},
    "version": 1
  },
  "userdoc": {
    "kind": "user",
    "methods": {},
    "version": 1
  }
}