{
  "contractName": "DocumentVerification",
  "abi": [
    {
      "anonymous": false,
      "inputs": [
        {
          "indexed": false,
          "internalType": "bytes32",
          "name": "documentHash",
          "type": "bytes32"
        }
      ],
      "name": "DocumentSubmitted",
      "type": "event"
    },
    {
      "inputs": [
        {
          "internalType": "bytes32",
          "name": "documentHash",
          "type": "bytes32"
        }
      ],
      "name": "submitDocument",
      "outputs": [
        {
          "internalType": "bool",
          "name": "",
          "type": "bool"
        }
      ],
      "stateMutability": "nonpayable",
      "type": "function"
    },
    {
      "inputs": [],
      "name": "getDocumentCount",
      "outputs": [
        {
          "internalType": "uint256",
          "name": "",
          "type": "uint256"
        }
      ],
      "stateMutability": "view",
      "type": "function",
      "constant": true
    },
    {
      "inputs": [
        {
          "internalType": "bytes32",
          "name": "documentHash",
          "type": "bytes32"
        }
      ],
      "name": "isDocumentExists",
      "outputs": [
        {
          "internalType": "bool",
          "name": "",
          "type": "bool"
        }
      ],
      "stateMutability": "view",
      "type": "function",
      "constant": true
    }
  ],
  "bytecode": "0x608060405234801561001057600080fd5b506102f2806100206000396000f3fe608060405234801561001057600080fd5b50600436106100415760003560e01c80633d1c227314610046578063a2c196ff14610064578063f59f444314610094575b600080fd5b61004e6100c4565b60405161005b9190610265565b60405180910390f35b61007e600480360381019061007991906101d5565b6100d0565b60405161008b919061022f565b60405180910390f35b6100ae60048036038101906100a991906101d5565b610196565b6040516100bb919061022f565b60405180910390f35b60008080549050905090565b60006001600083815260200190815260200160002060009054906101000a900460ff16156101015760009050610191565b6000829080600181540180825580915050600190039060005260206000200160009091909190915055600180600084815260200190815260200160002060006101000a81548160ff0219169083151502179055507f3f157384e9d478993bbc11fc4ab490f4d7975a438e9c74539f0fb5ad10b18ed882604051610184919061024a565b60405180910390a1600190505b919050565b60006001600083815260200190815260200160002060009054906101000a900460ff169050919050565b6000813590506101cf816102a5565b92915050565b6000602082840312156101eb576101ea6102a0565b5b60006101f9848285016101c0565b91505092915050565b61020b81610280565b82525050565b61021a8161028c565b82525050565b61022981610296565b82525050565b60006020820190506102446000830184610202565b92915050565b600060208201905061025f6000830184610211565b92915050565b600060208201905061027a6000830184610220565b92915050565b60008115159050919050565b6000819050919050565b6000819050919050565b600080fd5b6102ae8161028c565b81146102b957600080fd5b5056fea264697066735822122057b61114b79bbd7dbff79e7acf4be9a0ac28a793516cd0c6c92a6f5a51150da964736f6c63430008070033",
  "immutableReferences": {},
  "source": "// SPDX-License-Identifier: MIT\r\npragma solidity ^0.8.7;\r\n\r\ncontract DocumentVerification {\r\n    // Array to store document hashes\r\n    bytes32[] private documentHashes;\r\n\r\n    // Mapping for quick lookup of document existence\r\n    mapping(bytes32 => bool) private documentExists;\r\n\r\n    // Event to log successful document submissions\r\n    event DocumentSubmitted(bytes32 documentHash);\r\n\r\n    // Function to submit and verify a document hash\r\n    function submitDocument(bytes32 documentHash) public returns (bool) {\r\n        // Check if the document hash already exists using mapping\r\n        if (documentExists[documentHash]) {\r\n            return false; // Document already exists\r\n        }\r\n\r\n        // Add the document hash to the array and mark it as existing\r\n        documentHashes.push(documentHash);\r\n        documentExists[documentHash] = true;\r\n\r\n        // Emit an event to log the successful submission\r\n        emit DocumentSubmitted(documentHash);\r\n\r\n        return true; // Document added successfully\r\n    }\r\n\r\n    // Function to get the total number of documents submitted\r\n    function getDocumentCount() public view returns (uint256) {\r\n        return documentHashes.length;\r\n    }\r\n\r\n    // Function to check if a document hash exists\r\n    function isDocumentExists(bytes32 documentHash) public view returns (bool) {\r\n        return documentExists[documentHash];\r\n    }\r\n}\r\n",
  "sourcePath": "E:\\anurag\\digital\\digital\\truffle\\contracts\\document.sol",
  "compiler": {
    "name": "solc",
    "version": "0.8.7+commit.e28d00a7.Emscripten.clang"
  },
  "schemaVersion": "3.4.16",
  "updatedAt": "2025-01-12T03:55:37.929Z",
  "networkType": "ethereum",
  "devdoc": {
    "kind": "dev",
    "methods": {},
    "version": 1
  },
  "userdoc": {
    "kind": "user",
    "methods": {},
    "version": 1
  }
}