{
  "contractName": "PasswordMatcher",
  "abi": [
    {
      "anonymous": false,
      "inputs": [
        {
          "indexed": true,
          "internalType": "uint256",
          "name": "attemptNumber",
          "type": "uint256"
        },
        {
          "indexed": false,
          "internalType": "bool",
          "name": "isMatch",
          "type": "bool"
        }
      ],
      "name": "PasswordMatchAttempt",
      "type": "event"
    },
    {
      "inputs": [],
      "name": "count",
      "outputs": [
        {
          "internalType": "uint256",
          "name": "",
          "type": "uint256"
        }
      ],
      "stateMutability": "view",
      "type": "function",
      "constant": true
    },
    {
      "inputs": [
        {
          "internalType": "string",
          "name": "password1",
          "type": "string"
        },
        {
          "internalType": "string",
          "name": "password2",
          "type": "string"
        }
      ],
      "name": "matchPasswords",
      "outputs": [
        {
          "internalType": "bool",
          "name": "",
          "type": "bool"
        }
      ],
      "stateMutability": "nonpayable",
      "type": "function"
    }
  ],
  "bytecode": "0x60806040526000805534801561001457600080fd5b506104c5806100246000396000f3fe608060405234801561001057600080fd5b50600436106100365760003560e01c806306661abd1461003b5780635f9f612f14610059575b600080fd5b610043610089565b60405161005091906102a6565b60405180910390f35b610073600480360381019061006e91906101ad565b61008f565b604051610080919061028b565b60405180910390f35b60005481565b600060016000546100a0919061032d565b6000819055506000826040516020016100b99190610274565b60405160208183030381529060405280519060200120846040516020016100e09190610274565b604051602081830303815290604052805190602001201490506000547f0399d0ac00df487658a0b530e9634c4473062b4483937b9bc310cab639b7fa8f8260405161012b919061028b565b60405180910390a28091505092915050565b600061015061014b846102e6565b6102c1565b90508281526020810184848401111561016c5761016b61046f565b5b610177848285610399565b509392505050565b600082601f8301126101945761019361046a565b5b81356101a484826020860161013d565b91505092915050565b600080604083850312156101c4576101c3610479565b5b600083013567ffffffffffffffff8111156101e2576101e1610474565b5b6101ee8582860161017f565b925050602083013567ffffffffffffffff81111561020f5761020e610474565b5b61021b8582860161017f565b9150509250929050565b61022e81610383565b82525050565b600061023f82610317565b6102498185610322565b93506102598185602086016103a8565b80840191505092915050565b61026e8161038f565b82525050565b60006102808284610234565b915081905092915050565b60006020820190506102a06000830184610225565b92915050565b60006020820190506102bb6000830184610265565b92915050565b60006102cb6102dc565b90506102d782826103db565b919050565b6000604051905090565b600067ffffffffffffffff8211156103015761030061043b565b5b61030a8261047e565b9050602081019050919050565b600081519050919050565b600081905092915050565b60006103388261038f565b91506103438361038f565b9250827fffffffffffffffffffffffffffffffffffffffffffffffffffffffffffffffff038211156103785761037761040c565b5b828201905092915050565b60008115159050919050565b6000819050919050565b82818337600083830152505050565b60005b838110156103c65780820151818401526020810190506103ab565b838111156103d5576000848401525b50505050565b6103e48261047e565b810181811067ffffffffffffffff821117156104035761040261043b565b5b80604052505050565b7f4e487b7100000000000000000000000000000000000000000000000000000000600052601160045260246000fd5b7f4e487b7100000000000000000000000000000000000000000000000000000000600052604160045260246000fd5b600080fd5b600080fd5b600080fd5b600080fd5b6000601f19601f830116905091905056fea2646970667358221220b9e20213822e2a2fc1662ef537f2776bc936ecd50b4ba4e14732d9e54d6837ad64736f6c63430008070033",
  "immutableReferences": {},
  "source": "// SPDX-License-Identifier: MIT\r\npragma solidity ^0.8.7;\r\n\r\ncontract PasswordMatcher {\r\n\r\n    uint256 public count = 0; // State variable to track the number of password checks\r\n\r\n    // Event to log password match attempts\r\n    event PasswordMatchAttempt(uint256 indexed attemptNumber, bool isMatch);\r\n\r\n    // Function to compare two password strings\r\n    function matchPasswords(string memory password1, string memory password2) public returns (bool) {\r\n        count = count + 1; // Increment the count\r\n\r\n        // Compare the two strings\r\n        bool isMatch = keccak256(abi.encodePacked(password1)) == keccak256(abi.encodePacked(password2));\r\n\r\n        // Emit an event with the match result\r\n        emit PasswordMatchAttempt(count, isMatch);\r\n\r\n        return isMatch;\r\n    }\r\n}\r\n",
  "sourcePath": "C:\\Users\\AnuRaG\\Desktop\\digital\\digital\\truffle\\contracts\\studentVerification.sol",
  "compiler": {
    "name": "solc",
    "version": "0.8.7+commit.e28d00a7.Emscripten.clang"
  },
  "schemaVersion": "3.4.16",
  "updatedAt": "2025-01-12T03:55:37.920Z",
  "networkType": "ethereum",
  "devdoc": {
    "kind": "dev",
    "methods": {},
    "version": 1
  },
  "userdoc": {
    "kind": "user",
    "methods": {},
    "version": 1
  }
}